{"abi":[{"type":"function","name":"getCount","inputs":[],"outputs":[{"name":"","type":"uint256","internalType":"uint256"}],"stateMutability":"view"},{"type":"function","name":"increaseCount","inputs":[{"name":"value","type":"uint256","internalType":"uint256"}],"outputs":[],"stateMutability":"nonpayable"}],"bytecode":{"object":"0x6080604052348015600e575f5ffd5b506101ba8061001c5f395ff3fe608060405234801561000f575f5ffd5b5060043610610034575f3560e01c806346d4adf214610038578063a87d942c14610054575b5f5ffd5b610052600480360381019061004d91906100d1565b610072565b005b61005c61008f565b604051610069919061010b565b60405180910390f35b805f6005015f8282546100859190610151565b9250508190555050565b5f5f60050154905090565b5f5ffd5b5f819050919050565b6100b08161009e565b81146100ba575f5ffd5b50565b5f813590506100cb816100a7565b92915050565b5f602082840312156100e6576100e561009a565b5b5f6100f3848285016100bd565b91505092915050565b6101058161009e565b82525050565b5f60208201905061011e5f8301846100fc565b92915050565b7f4e487b71000000000000000000000000000000000000000000000000000000005f52601160045260245ffd5b5f61015b8261009e565b91506101668361009e565b925082820190508082111561017e5761017d610124565b5b9291505056fea26469706673582212201d3b976b7ed5b482a5f81f8d1e3246afb0f3734ae91f6f718d8b0a105a0ab94c64736f6c634300081e0033","linkReferences":{}},"methodIdentifiers":{"getCount()":"a87d942c","increaseCount(uint256)":"46d4adf2"},"id":4}